:10000000C064002019010000150100001501000066
:1000100000000000000000000000000000000000E0
:1000200000000000000000000000000015010000BA
:100030000000000000000000E108000025090000A9
:100040001501000015010000150100001501000058
:100050001501000015010000150100001501000048
:100060001501000015010000150100001501000038
:100070001501000015010000150100001501000028
:100080001501000015010000150100001501000018
:100090001501000000000000000000001501000034
:1000A00015010000150100001501000015010000F8
:1000B0000000000010B5064C2378002B07D1054B3B
:1000C000002B02D0044800E000BF0123237010BDC4
:1000D0003C0400200000000058200000084B10B530
:1000E000002B03D00749084800E000BF0748036819
:1000F000002B00D110BD064B002BFBD09847F9E731
:10010000000000004004002058200000582000009B
:1001100000000000FEE70000F8B52A4A2A4B9A4288
:1001200011D01A00294B9A420DD2294A03339B1A47
:100130009B0801339B000022234822498C5884509D
:1001400004329A42FAD1234A234B9A420AD2D34329
:1001500021495B1803218B4304339B18002102C201
:100160009342FCD11D4AFF211D4B8B439360FD3907
:1001700090235B001B4AD1501B4AD3780325AB4325
:1001800002242343D370D3780C27BB430826334380
:10019000D370164B987B30229043202210439873E3
:1001A000997BB943314399739A7BAA4322439A734B
:1001B0000F4A536880210B4353600E4B98470E4BF8
:1001C0009847FEE758200000000000203C04002073
:1001D000040000203C040020BC44002000ED00E0AE
:1001E0000000000000700041005000410048004144
:1001F00000400041911C000045040000014A024BF0
:100200001A60704740420F000000002070B50400E3
:100210002A4B98472A4B9B68002B11D00025002CB5
:1002200046D020000830430702D007239843083007
:10023000431E244A002593423AD821490B6813E013
:100240001F490B001433072293430B6000254D60B8
:100250001D4A1E481061D56058600C321A60012397
:100260008B60DBE7190013005A68904202D91A68C4
:10027000002AF7D1144A0C3293421DD00D6808357C
:100280001A680A605A68121A102A0CD91C1862607F
:10029000586060680A4900E011000A685668B04278
:1002A000FAD822600C600A4A5B681168CB1A1360A6
:1002B000084B9847280070BD0025F9E7751300002A
:1002C00058040020763E0000D8420020783E00000E
:1002D00004000020A114000070B5041E16D0050013
:1002E000083D0B4B984769680A4A00E01A001368FA
:1002F00058688142FAD8083C23601560064A636852
:1003000011688C4663441360044B984770BDC04627
:10031000751300005804002004000020A114000000
:10032000030008334360012252428260C3600361CC
:1003300000230360704700230361704743684B60EC
:100340009A688A609A68516099600861036801330D
:100350000360704730B50C6802000832631C02D19C
:10036000026904E01A0053681D68AC42FAD253686F
:100370004B6099608A6051600861036801330360D3
:1003800030BD03694268816891608268416851604C
:100390005A68904206D0002202611A68013A1A6037
:1003A0001868704782685A60F5E7000070B50A4C1B
:1003B0000A4D0B4E02E030000A4B9847FA22920099
:1003C00021006068A8470028F5D0034B196806484B
:1003D000044B9847F2E7C046EC420020510E000063
:1003E000581F00009D050000481F0000F8B50F4E83
:1003F0000F4D3400083407E00C4A936801339360D2
:10040000FA20C0000B4B9847B16828000A4B984768
:100410000023FA22920021007068084FB847002894
:10042000EAD10748044B9847E6E7C046EC42002073
:100430007C1F0000951500009D050000F50B0000D5
:10044000581F0000F0B583B01C4B98471C4A136A34
:100450001C490B4013621C4B98471C4B02224E2137
:100460005A5405395A5401395A5407315A54802282
:10047000D2015A608024A4005C60802252005A603D
:10048000802212025A6000224B390320104B9847F9
:10049000104B586000270197012600960023220088
:1004A0000D490E480E4DA8470197009600232200E3
:1004B0000C490D48A8470D4B9847FEE7FD01000089
:1004C00000080040FFFCFFFFF51B00000044004156
:1004D000A90B0000EC420020CC1F0000ED0300003F
:1004E00039110000D41F0000AD0300000D130000FF
:1004F000024A1368591C11601870704700430020AD
:1005000010B53023092805D9064B1A793723002A5C
:1005100000D120331818C0B2034B98470122014B79
:100520005A7110BD00430020F104000010B50E4BBD
:100530001A899A60824210D30023121A0133DBB267
:100540009042FAD908498A604A79002A01D1002BE1
:1005500002D01800054B984710BD034B5B79002B68
:10056000FAD00023F5E7C046004300200105000053
:100570000A2808D0084901220B7E1342FCD080B221
:10058000054B18857047044901220B7E1342FCD0AD
:100590000D22014B1A85EDE7000800420FB4F0B5BB
:1005A000DE4657464E464546E0B587B010AB80CB99
:1005B0000593734B0C330293714B9A46714B9846DB
:1005C00053460C3303938CE07B78302B29D00237D1
:1005D0000022934600241A00303A092A0CD8A200BF
:1005E000A4186400303CE418E4B27A1C3B7817008D
:1005F000190030390929F2D9614A029911600022A3
:100600005F494A71632B00D17DE00FD8252B00D1C3
:1006100086E0582B11D0002B00D1A6E0584D0C35A8
:100620003CE0BB78033701229346D3E7732B72D0AB
:100630001BD9752B1BD0782BF0D1514D583B59420B
:1006400059412971059B1A1D05921B68AB608020DA
:1006500040014D4EB04780204000B0471020B047C9
:10066000287A4A4B98470C3518E0642BD6D1059A66
:10067000111D0591126842498A60642B3BD04448A1
:10068000414DA847FA208000A8476420A8470A20C7
:10069000A8473B4D287A3D4B98470C3500235246DE
:1006A000126813706B1C994653464A461A602878A4
:1006B000002855D0002C0CD0AA1C631EDBB2110000
:1006C000561E3678002E3CD001321C1EF5D12C4B24
:1006D000196028784D46C04701356B1E18780028F0
:1006E000F9D13878002840D0252800D16CE70137AF
:1006F000244B9847F5E7002AC1DA52428A602D2040
:10070000244B9847BBE7059B1A1D05921878214B8F
:100710009847039DC2E7059B1A1D05921D68BDE71A
:1007200025201C4B9847164D0C35B7E71E00019845
:10073000A047731EDBB2002EF8D128780028C9D15B
:10074000CFE70F4A1160023CE6B2002BC2D0202452
:100750005B46002B00D03024E3B20193094CE6E75E
:10076000661EF6B2002CF2D1BBE707B03CBC904647
:100770009946A246AB46F0BC08BC04B01847C04638
:1007800000430020710500002D0500000105000058
:1007900010270000F104000082B000230193064BF3
:1007A0001B68013301D072B6FEE772B6019B002BC5
:1007B000FCD002B07047C0460800002000000000D6
:1007C0000B4A13681868203080F30988022080F3F0
:1007D0001488BFF36F8F3FBCAE4608BC04BC62B642
:1007E0001847C046C046C046C046C046C046C04680
:1007F000CC43002010B5031F802464041C60043B1C
:100800001960043B02491960143B1A60403810BD5E
:100810009907000010B50F4B1968FF2212040A4314
:100820001A601968FF2212060A431A600A4A002356
:1008300013600A490B600A480A49086007211160E1
:10084000094A1360094B9847094B9847094B984749
:10085000002010BD20ED00E010E000E018E000E016
:10086000FF76010014E000E008000020C10700004E
:10087000D51500009907000080225205034B1A602D
:10088000BFF34F8FBFF36F8F7047C04604ED00E09A
:1008900072B6044A136801331360BFF34F8FBFF37E
:1008A0006F8F704708000020064B1B68002B01D19A
:1008B00072B6FEE7013B034A1360002B00D162B61B
:1008C0007047C04608000020EFF3108072B67047F2
:1008D00080F3108870470000000000000000000056
:1008E000EFF309800E4B1A6820381060F0C04446C0
:1008F0004D4656465F46F0C008B572B600F06AFE37
:1009000062B60CBC116808681030F0C8A046A94651
:10091000B246BB4680F309882038F0C81847C04665
:10092000CC43002010B5074B98470400064B98476E
:10093000002803D080225205044B1A602000044B8B
:10094000984710BDC90800009113000004ED00E0B5
:10095000D108000010B50400034B9847A46B034B6B
:1009600098476042604110BD91080000A90800004E
:1009700070B504001600856B026C002A0BD10020B4
:100980002368834204D16068164B98470023636054
:100990000135A56370BD002E0ED18068124B9847BB
:1009A000A368226C94466344A3600020626893426B
:1009B000EED32368A360EBE7C0680B4B9847236C2A
:1009C0005B42E268D218E26021688A4203D2626820
:1009D00094466344E3600020022ED9D18542D7D0EB
:1009E000013DD5E7F1170000D91C000070B582B0B9
:1009F00001900A00846C002C05D0A16BE36B994236
:100A000003D372B6FEE772B6FEE7A16B00268B42F7
:100A100002D8300002B070BD4523E55C6DB201A97B
:100A200020000A4B984706006B1C0AD1636A002B12
:100A3000EFD020002430064B98470028E9D001264B
:100A4000E7E701356DB24523E554E2E7710900009F
:100A5000CD16000010B50C00026C002A0BD0C36844
:100A60009B18C36041688B4201D30368C360C168AF
:100A70002000014B984710BDD91C0000F8B50700B5
:100A8000254B98474523FC5C64B2002C1CDD234EAB
:100A9000234D0BE07B6A002B16D038002430A8478A
:100AA00000280ED1013C64B2002C0DD0BB6C002B91
:100AB000F0D000213800B0470028F3D0194B9847F8
:100AC000F0E7184B9847EDE7FF224523FA54164B01
:100AD0009847114B98474423FC5C64B2002C14DD0A
:100AE0003B69002B11D03D0010350D4E06E0013C56
:100AF00064B2002C09D03B69002B06D02800B04717
:100B00000028F4D0074B9847F1E7FF224423FA541A
:100B1000054B9847F8BDC04691080000ED0900005C
:100B2000CD160000C9170000A908000070B5040028
:100B30000D00002821D0174B98472268216CE36BE9
:100B40004B43D01860600020A063A2605B1AD318EA
:100B5000E360FF234422A3540132A354002D11D19A
:100B60002369002B05D0200010300B4B984700283C
:100B700005D10A4B9847012070BD72B6FEE7084BBD
:100B80009847F6E720001030064DA8472000243093
:100B9000A847EEE791080000CD160000A908000064
:100BA0007908000021030000F8B506000D001700C9
:100BB000002801D172B6FEE70800704354300B4B99
:100BC0009847041E10D0002D03D003005433036057
:100BD00000E02060E663256401212000044B984773
:100BE0005023E7540023A3642000F8BD0D02000049
:100BF0002D0B0000F0B5CE46474680B585B0040009
:100C00000F0001921D0000280CD000290CD0022DED
:100C10000FD04E4B9847002810D1019B002B11D0CC
:100C200072B6FEE772B6FEE7036C002BEFD072B629
:100C3000FEE7E36B012BECD072B6FEE70026444BD7
:100C400098464CE00026FAE72A0039002000414B84
:100C50009847A36C002B0FD0290020003E4B9847EB
:100C6000002801D03D4B98473D4B9847012005B0E7
:100C70000CBC90469946F0BD636A002B08D020005A
:100C80002430384B98470028EED0344B9847EBE798
:100C90000028E9D0314B9847E6E7314B98470020D0
:100CA000E5E72F4B984701A902A82F4B984700284A
:100CB00044D1274B9847A36B9946E66B284B98473E
:100CC000B14535D1200010300199284B98472000BC
:100CD000274B9847274B9847002826D00126C04726
:100CE000A36BE26B9342AFD3022DADD0019B002BDF
:100CF000D3D0002E02D102A81F4B9847184B98471B
:100D00001E4B9847124B98474423E35C5BB2013378
:100D100002D100224423E2544523E35C5BB2013359
:100D2000BFD100224523E254BBE70C4B9847D5E7DF
:100D300020000F4B98470F4B9847CFE720000C4BF4
:100D400098470C4B9847002091E7C046D517000004
:100D50009108000071090000ED0900007908000009
:100D6000A9080000CD1600005D17000069160000FC
:100D70007D0A0000A11400004D170000751300004B
:100D8000F0B583B00400019116001D00002812D0B8
:100D9000019B002B11D0022D14D0284B98470090B6
:100DA000A36BE26B9A422FD800250098244B9847FA
:100DB000280003B0F0BD72B6FEE7036C002BEAD04A
:100DC00072B6FEE7E36B012B1AD072B6FEE7636AD8
:100DD0000125002BE9D0200024301A4B9847002829
:100DE000E3D0002E0AD001233360DEE77B1C5BB228
:100DF0004522A3540125D8E70125D6E70125D4E7EC
:100E00000E4B98470090A36B4523E75C7FB22A0006
:100E1000019920000C4B98477B1CE7D1A36C002B59
:100E2000D5D029002000094B984701250028BCD0C7
:100E3000002EE1D001233360B7E7C046C9080000A7
:100E4000D1080000CD16000071090000ED09000076
:100E5000F0B5C64600B584B004000F00019200282A
:100E60000AD000290AD0424B984700280BD1019B99
:100E7000002B0CD072B6FEE772B6FEE7036C002BB7
:100E8000F1D072B6FEE700263A4B98462FE00026D6
:100E9000FAE739002000384B9847013DA5632369E4
:100EA000002B07D020001030344B9847002801D089
:100EB000334B9847334B9847012004B004BC90460D
:100EC000F0BD304B98470020F7E702A82E4B98471B
:100ED00016E000224423E2541DE000224523E254A0
:100EE0001EE02000294B9847294B98470126C04710
:100EF000A56B002DCDD1019B002BE2D0002EE4D0BC
:100F0000204B9847234B98471A4B98474423E35C60
:100F10005BB20133DDD04523E35C5BB20133DCD04F
:100F2000184B984701A902A81B4B9847002813D1DA
:100F300020001A4B98470028D3D020002430019974
:100F4000174B98472000114B9847114B98470028A2
:100F5000CCD10B4B9847C9E720000C4B98470C4B62
:100F6000984720000D4B98470028BFD00020A4E7E9
:100F7000D517000091080000550A0000CD160000AA
:100F800079080000A90800004D1700007D0A000044
:100F9000A1140000751300005D1700005509000042
:100FA0006916000010B50A4B1B68002B09D00123FD
:100FB000074CDA00A258002A04D00133082BF8D1DC
:100FC00010BD0023024ADB009950D3185860F7E7A0
:100FD0005844002070B504000D001600114B9847CE
:100FE0004423E35C5BB201330DD04523E35C5BB289
:100FF00001330CD00C4B9847A36B002B0BD0200077
:101000000A4B984770BD00224423E254EDE70022CA
:101010004523E254EEE72000243032002900044B3F
:101020009847ECE791080000A90800007D0A00003D
:1010300095160000084B9B6A1B68002B06D0064BD8
:101040009A6AD268D2685268DA62704701225242C4
:10105000014BDA62F9E7C04618430020F8B5CE46E6
:10106000474680B5124B9846124F1C00124B9946CA
:1010700043461B6B002B14D0B847236CDD68281D3A
:10108000C847A36C013BA364236B013B23630B4B59
:101090009847286B0A4EB0472800B047236B002BB7
:1010A000EAD1034BDB6C012BE2D9064B9847DFE713
:1010B000184300209108000083030000A9080000E5
:1010C000D90200007908000070B504000D00154B2E
:1010D0001E6B586B0430144B9847631C12D03419A4
:1010E000104B5B6B5C60A64215D8104DA86A0D4B87
:1010F000596B04310E4B9847EB6A9C4211D20B4B53
:10110000DC620EE0002DEAD0064B596B0431074833
:10111000084B984705E0034B986B596B0431044B1F
:10112000984770BD984300208303000018430020B7
:10113000550300003D030000F0B5D6464F46464635
:10114000C0B584B001900D00029397003800634B46
:101150009847061E00D189E05420604B9847041E32
:1011600000D180E006633A00A52130005C4B98472F
:101170003A1F236B9C46624407239A4390462A7881
:101180002D33E2542B78002B0CD06B1C220035320F
:101190000535197811701978002903D0013301320F
:1011A000AB42F6D100223823E2540C9F042F00D921
:1011B0000427E76267640026A664231D03931800D2
:1011C000484DA84720001830A84724610523DB1BA1
:1011D000A3616462E6645023E654029A0199404692
:1011E000414B984720600D9B002B00D01C603F4B6B
:1011F00098473F4A936C013393643E4B5B6B002BE3
:1012000037D03C4B5B6E002B07D13A4B5B6BDB6AF4
:10121000E26A934201D8374B5C6336498B6E0133E7
:101220008B66E363E26ACB6E9A4200D9CA6690008D
:10123000821892002E484C30801803992E4B984704
:101240002E4B98472B4B5B6E0120002B05D0294B72
:101250005B6BDA6AE36A9A423BD304B01CBC9046EB
:101260009946A246F0BD3000254B984701204042E8
:10127000F3E7204B5C63936C012BCED11700100079
:101280004C30204EB04738006030B04738007430E2
:10129000B04738008830B04738009C30B047154B15
:1012A00098463C2343449A461800B0475023434491
:1012B00099461800B04738001430B0473800343031
:1012C000B0473800B0475346BB6243464A469A632C
:1012D000A3E70D4B98470120BFE7C0460D02000071
:1012E0005D1D000037030000F507000091080000B5
:1012F00018430020984300203D030000A908000087
:10130000D9020000210300007908000010B582B066
:10131000114B743301930023009346220F49104868
:10132000104CA047012803D0431C12D002B010BDBE
:101330000D4B98470128F7D172B6012252420B4B50
:10134000DA62054B02325A6600221A63084B98474C
:10135000ECE772B6FEE7C04698430020E01F0000AD
:101360005D10000039110000111900001843002021
:1013700015080000024A136F013313677047C04617
:1013800098430020014B186B7047C04698430020DB
:10139000F8B5CE46474680B53B4B1B6F002B64D15A
:1013A000394B1E6B01361E63002E11D1374B9B6AE1
:1013B0001B68002B01D072B6FEE7344A916A324BAB
:1013C000986B906299639A6F01329A67304B984795
:1013D0002E4BDB6A00249E4237D300242B4B9946C8
:1013E0004C229446634498464B469B6A1B68002BEC
:1013F00027D0264B9B6ADB68DF687B689E4231D32F
:101400003D1D2800234B9847BB6A002B03D03800B2
:101410001830204B9847FB6A1B4AD26E934201D981
:10142000194AD3669800C0188000404429001A4B1E
:101430009847154B5B6BFA6ADB6A9A42D4D3012456
:10144000D2E701225242114BDA620F4B5B6BDA6A30
:1014500093009B189B000D4AD318DB6C012B09D914
:10146000012407E0094AD362EFE7074AD36F01334B
:10147000D3670024094B1B68002B00D001242000F7
:101480000CBC90469946F8BD9843002018430020B4
:1014900035100000830300003D03000018440020C5
:1014A000F0B583B0314B1B6F002B01D172B6FEE754
:1014B0002F4B98472D4B1A6F013A1A671B6F002468
:1014C000002B04D12B4B9B6C0025002B04D12A4B05
:1014D0009847200003B0F0BD264F3E004C367B6994
:1014E000002B22D0234B1B6ADD6828001830234CC8
:1014F000A0472B1D01931800A047EB6A1B4AD26E30
:10150000934201D9194AD3669800C0188000301858
:1015100001991B4B9847154B5B6BDB6AEA6A9A4251
:10152000DDD30122174B1A60D9E7002D01D0164BED
:1015300098470E4BDC6F002C0ED0144F114E012536
:1015400002E0013C002C04D0B8470028F9D03560F7
:10155000F7E70022054BDA670A4B1B680024002BD3
:10156000B5D00B4B98470134B1E7C04698430020F3
:101570009108000018430020A90800008303000020
:101580003D030000184400203510000091130000B6
:101590007908000010B5041E0FD0094B1B6F002BFB
:1015A00001D072B6FEE7074B984700212000064B9A
:1015B0009847064B9847002801D1054B984710BD26
:1015C0009843002075130000C9100000A11400000A
:1015D0007908000010B5214B1B6F002B1AD1002297
:1015E0001F4B1A601D4BDB6E9A00D21892001D49EA
:1015F0008A18D26C002A11D1002B09D0013B9A0025
:10160000D21892008A18D26C002A07D1002BF5D18B
:1016100072B6FEE70122124B1A6010BD114A990002
:10162000C81880001018046D64680465C918890022
:101630000200543294420AD09A00D218920009490A
:101640008A18126DD168054A5163D366E5E7606870
:101650000A0004498A181065EEE7C0469843002046
:10166000184400201843002010B50C00002801D1B8
:1016700072B6FEE7044B596B1831044B98470121B1
:101680002000034B984710BD9843002055030000ED
:10169000C910000070B50C00150000280DD0084BD3
:1016A000596B1831074B9847002D01D00124644233
:1016B00029002000044B984770BD72B6FEE7C04673
:1016C000984300203D030000C910000070B5C368B6
:1016D000DC68002C28D0250018352800164B9847C8
:1016E000164B1B6F002B21D1251D2800124B98474C
:1016F000E36A124AD26E934201D9104AD366980027
:10170000C3189B000E484C30C01829000D4B984759
:101710000A4B5B6BE26ADB6A00209A4203D9012222
:10172000094B1A60013070BD72B6FEE7290004480B
:101730001430044B9847EBE78303000098430020E4
:10174000184300203D03000018440020024B9A6F0C
:1017500002601B6B436070479843002070B5060021
:101760000D0000281BD000291BD0134B9847134BAA
:101770001A6B71682B68581C1CD01048806F346835
:10178000844202D001248A4205D2521A9A420AD3D4
:1017900000232B6001240A4B9847200070BD72B6CD
:1017A000FEE772B6FEE79B1A2B603000054B9847A8
:1017B0000024F0E70024EEE79108000098430020A1
:1017C000A90800004D1700000122014B1A60704764
:1017D00018440020054B5B6E0120002B04D0034B06
:1017E000186F4342584140007047C046984300205C
:1017F00070B5041E2DD0194B5B6B984201D072B6A8
:10180000FEE7836C002B01D172B6FEE7013B8364D7
:10181000C26A416C8A421ED00020002B18D1251DBF
:1018200028000F4B9847636CE3620522D21AA2612D
:101830000A4AD26E934201D9084AD3669800C31867
:101840009B0008484C30C0182900074B98470120DE
:1018500070BD0020FCE70020FAE7C0469843002056
:1018600083030000184300203D03000010B54160D1
:10187000006191420BD8D21A012483699A4211D295
:10188000011D094B1868094B984700240AE09A4249
:1018900002D20124994205D2011D034B5868034B23
:1018A00098470024200010BD1C4400205503000070
:1018B000F8B5104B9847104B9B68002B02D00F4B8C
:1018C0009847F8BD0C4C26000C3630000C4FB8473A
:1018D000250020352800B8476660256000220C21CD
:1018E0000520084B9847A0600028E8D00649074B20
:1018F0009847E4E7910800001C440020A908000074
:1019000021030000A90B000020200000A50F00000B
:1019100010B582B00B4B98470B4B9B68002B0ED039
:10192000094B3433019302230093002350220749CB
:101930000748084CA047002801D002B010BD72B67D
:10194000FEE7C046B11800001C440020282000001B
:10195000751A00003911000030B585B004001D0073
:10196000002814D0134B9868002821D001910292CE
:101970000394052915DC104B9847022809D00D4B1C
:1019800098680023002201A90C4CA0470EE072B613
:10199000FEE7084B98680023089A01A9074CA04766
:1019A00004E000232A0001A9054CA04705B030BD82
:1019B0000020FBE71C440020D5170000F50B0000B9
:1019C000810D0000F0B5D6464F464646C0B582B000
:1019D0008046234B98478246224B9B6B984217D3F5
:1019E0000023424613601F4B52469A63504602B092
:1019F0001CBC90469946A246F0BD002300933A00D5
:101A000000212000184CA047002804D172B6FEE740
:101A1000144D164B99466B681A68002A17D0DB687C
:101A20001F68DC68261D3000C8472000636A98479D
:101A3000E369012BEFD1A369FB189F42DDD26360FC
:101A40002461084B58683100094B9847E3E7054A81
:101A5000116851601360012342461360C3E7C0461A
:101A6000851300001C440020591900008303000066
:101A700055030000F0B589B0524F534B5B681A68AC
:101A8000002A0ED0DB681C68504B984705A8504BC5
:101A900098470500059B002B5FD1A04236D200225B
:101AA0000FE04A4B984705A8494B98470500059B0E
:101AB000002B52D1444B1B681B685A425A41D2B288
:101AC0000024611B404B9868424B9847424B984713
:101AD00000283FD03C4D414C002205A9A868A047F2
:101AE0000028CAD0059B0393002BF5DB079E736982
:101AF000002B01D0301DB84704A8354B9847059BF3
:101B0000092BE9D89B00364AD3589F46324B984759
:101B10002D4B5B68DB68DE68301D2A4B9847F36904
:101B2000012B03D0736A30009847D3E7B369E118FB
:101B300023002A0030002B4DA8470028F2D00023B4
:101B40000093220000213000274CA0470028E9D153
:101B500072B6FEE7254B9847BCE71F4B9847B9E79D
:101B6000069BB269944663441900069B020030004C
:101B70001C4CA0470028AED03000736A9847F36928
:101B8000012BA8D1069BB1698C4663441A0000233F
:101B9000009300213000144CA04700289BD172B65E
:101BA000FEE70699B161002906D041180300020042
:101BB00030000C4CA0478EE772B6FEE730000C4BAD
:101BC000984788E7830300001C4400207513000039
:101BD000C5190000D50F0000A1140000510E00002F
:101BE000F81F00006D180000591900007908000066
:101BF000D90200001F4A136A04210B4313621E4BD3
:101C0000832252025A601D4A5A801D4B03394A22D0
:101C100099540631013299542E315A5C0F20824377
:101C2000022002435A54585C0F22024020200243F3
:101C30005A54144B1A6833398A431A60124A1A608C
:101C40001A00D369002BFCD1104A0E4B9A811A005E
:101C5000D369002BFCD1C02292020A4B5A601A00B1
:101C6000D369002BFCD1074A136802210B43136090
:101C70007047C04600040040000C004014400000C3
:101C800000440041000800420400314015FBFFFF02
:101C900070B50D4E0D4D0024AD1BAD1005D0A30049
:101CA000F35801349847A542F9D100F0C3F9084E22
:101CB000084D0024AD1BAD1005D0A300F35801342E
:101CC0009847A542F9D170BD402000004020000097
:101CD0004020000048200000F0B505000F2A2FD951
:101CE0000B0003439B0734D116000C000300103E89
:101CF000350901352D01451927681F6067685F6048
:101D0000A7689F60E7681034DF6010339D42F3D10D
:101D10000F239E431036851989191340032B1AD9B6
:101D20001E1F0023B4080134A400CF58EF50043321
:101D3000A342FAD10324A643331D2240C918ED184B
:101D4000002A05D00023CC5CEC5401339342FAD135
:101D5000F0BD0500F6E71A00F2E7C046F0B58307CC
:101D600043D0541E002A3FD0CEB20200032502E029
:101D70001A00013C38D3531C16702B42F8D1032CA7
:101D80002AD9FF220A40150215432A0415430F2CB5
:101D900014D927001A00103F3E09013636019E195A
:101DA000156055609560D56010329642F8D10F22CB
:101DB00097431037DB191440032C0DD91A00271F45
:101DC000BE080136B6009E1920C2B242FCD10322E1
:101DD00097430437DB191440002C05D0C9B21C19F5
:101DE000197001339C42FBD1F0BD14000300C6E71B
:101DF000034B10B5002B02D0024800F005F810BDCF
:101E000000000000191E000010B501000023002290
:101E1000002000F01FF810BD70B5094B094CE41A02
:101E2000A41009D0084AA518AD00ED182B68013C94
:101E30009847043D002CF9D100F006F970BDC0466A
:101E40005420000058200000FFFFFF3F7047C046AD
:101E50007047C046F0B54E464546DE465746E0B5AB
:101E6000364D83B00600286898460F009146FFF76C
:101E7000EDFF334B1C68A4235B00E058002852D0D0
:101E800043681F2B13DC5A1C0192002E28D1019AA3
:101E900002339B0042601F502868FFF7D9FF0020E3
:101EA00003B03CBC90469946A246AB46F0BD254BDC
:101EB000002B3DD0C820400000E000BF002837D0F4
:101EC000A42200235200A15843600160A050403278
:101ED000835004328350013301930023002ED6D067
:101EE0009A00924682444A46882154466250C4224F
:101EF0005200914681444A468739994012688B4680
:101F00000A4394464A466146116084224146520083
:101F1000A150022EBBD102005C468D32FF32116807
:101F20000C431460B3E720004D30FF30E050A7E7CA
:101F30002868FFF78DFF01204042B1E738040020F8
:101F4000302000000000000052656365697665641A
:101F50002025640A000000004661696C65642074F5
:101F60006F207265636569766520646174612066BF
:101F7000726F6D2071756575650A000053656E643A
:101F800020256420746F2072656365697665722010
:101F90007461736B0A0000000A48656C6C6F20570F
:101FA0006F726C64207461736B20312025640000B3
:101FB00055500A00444F574E0A0000004C45465405
:101FC0000A00000052494748540A000073656E64D5
:101FD00065720000726563656976657200000000D5
:101FE00049444C4500000000092563092575092571
:101FF000750925750D0A0000601B0000601B0000BC
:10200000601B0000D81A0000A21B0000BC1B0000CF
:10201000601B0000601B0000D81A0000A21B00001B
:10202000546D725100000000546D722053766300AD
:1020300010000020F8B5C046F8BC08BC9E467047AA
:10204000F11D0000DD000000F8B5C046F8BC08BC7A
:082050009E467047B500000038
:1020580040420F00783E0000AAAAAAAA0000000089
:1020680000000000FC02002064030020CC030020D4
:102078000000000000000000000000000000000058
:102088000000000000000000000000000000000048
:102098000000000000000000000000000000000038
:1020A8000000000000000000000000000000000028
:1020B8000000000000000000000000000000000018
:1020C8000000000000000000000000000000000008
:1020D80000000000000000000000000000000000F8
:1020E80000000000000000000000000000000000E8
:1020F80000000000000000000000000000000000D8
:1021080000000000000000000100000000000000C6
:102118000E33CDAB34126DE6ECDE05000B0000008B
:1021280000000000000000000000000000000000A7
:102138000000000000000000000000000000000097
:102148000000000000000000000000000000000087
:102158000000000000000000000000000000000077
:0C2488000000000000000000984400204C
:00000001FF
